{
  "_format": "hh-sol-artifact-1",
  "contractName": "PythFeedBoilerplate",
  "sourceName": "contracts/PythFeedBoilerplate.sol",
  "abi": [
    {
      "inputs": [
        {
          "internalType": "address",
          "name": "pythContract",
          "type": "address"
        }
      ],
      "stateMutability": "nonpayable",
      "type": "constructor"
    },
    {
      "inputs": [
        {
          "internalType": "bytes32",
          "name": "priceFeedId",
          "type": "bytes32"
        }
      ],
      "name": "getPrice",
      "outputs": [
        {
          "components": [
            {
              "internalType": "int64",
              "name": "price",
              "type": "int64"
            },
            {
              "internalType": "uint64",
              "name": "conf",
              "type": "uint64"
            },
            {
              "internalType": "int32",
              "name": "expo",
              "type": "int32"
            },
            {
              "internalType": "uint256",
              "name": "publishTime",
              "type": "uint256"
            }
          ],
          "internalType": "struct PythStructs.Price",
          "name": "",
          "type": "tuple"
        }
      ],
      "stateMutability": "view",
      "type": "function"
    },
    {
      "inputs": [
        {
          "internalType": "bytes32",
          "name": "priceFeedId",
          "type": "bytes32"
        }
      ],
      "name": "getPriceWithoutUpdate",
      "outputs": [
        {
          "internalType": "int64",
          "name": "",
          "type": "int64"
        },
        {
          "internalType": "int32",
          "name": "",
          "type": "int32"
        }
      ],
      "stateMutability": "view",
      "type": "function"
    },
    {
      "inputs": [],
      "name": "pyth",
      "outputs": [
        {
          "internalType": "contract IPyth",
          "name": "",
          "type": "address"
        }
      ],
      "stateMutability": "view",
      "type": "function"
    },
    {
      "inputs": [
        {
          "internalType": "bytes[]",
          "name": "priceUpdate",
          "type": "bytes[]"
        }
      ],
      "name": "updatePrice",
      "outputs": [],
      "stateMutability": "payable",
      "type": "function"
    }
  ],
  "bytecode": "0x608060405234801561001057600080fd5b5060405161064e38038061064e83398101604081905261002f91610054565b600080546001600160a01b0319166001600160a01b0392909216919091179055610084565b60006020828403121561006657600080fd5b81516001600160a01b038116811461007d57600080fd5b9392505050565b6105bb806100936000396000f3fe60806040526004361061003f5760003560e01c8063083a816b146100445780632592c0bf1461008657806331d98b3f1461009b578063f98d06f0146100fe575b600080fd5b34801561005057600080fd5b5061006461005f36600461035b565b610136565b6040805160079390930b835260039190910b6020830152015b60405180910390f35b610099610094366004610374565b6101ca565b005b3480156100a757600080fd5b506100bb6100b636600461035b565b6102b9565b60405161007d9190815160070b815260208083015167ffffffffffffffff169082015260408083015160030b908201526060918201519181019190915260800190565b34801561010a57600080fd5b5060005461011e906001600160a01b031681565b6040516001600160a01b03909116815260200161007d565b600080546040516331d98b3f60e01b815260048101849052829182916001600160a01b03909116906331d98b3f9060240160806040518083038186803b15801561017f57600080fd5b505afa158015610193573d6000803e3d6000fd5b505050506040513d601f19601f820116820180604052508101906101b79190610418565b8051604090910151909590945092505050565b6000805460405163d47eed4560e01b81526001600160a01b039091169063d47eed45906101fd90869086906004016104d1565b60206040518083038186803b15801561021557600080fd5b505afa158015610229573d6000803e3d6000fd5b505050506040513d601f19601f8201168201806040525081019061024d919061056c565b600054604051631df3cbc560e31b81529192506001600160a01b03169063ef9e5e2890839061028290879087906004016104d1565b6000604051808303818588803b15801561029b57600080fd5b505af11580156102af573d6000803e3d6000fd5b5050505050505050565b60408051608081018252600080825260208201819052818301819052606082018190525491516331d98b3f60e01b81526004810184905290916001600160a01b0316906331d98b3f9060240160806040518083038186803b15801561031d57600080fd5b505afa158015610331573d6000803e3d6000fd5b505050506040513d601f19601f820116820180604052508101906103559190610418565b92915050565b60006020828403121561036d57600080fd5b5035919050565b6000806020838503121561038757600080fd5b823567ffffffffffffffff8082111561039f57600080fd5b818501915085601f8301126103b357600080fd5b8135818111156103c257600080fd5b8660208260051b85010111156103d757600080fd5b60209290920196919550909350505050565b805167ffffffffffffffff8116811461040157600080fd5b919050565b8051600381900b811461040157600080fd5b60006080828403121561042a57600080fd5b6040516080810181811067ffffffffffffffff8211171561045b57634e487b7160e01b600052604160045260246000fd5b6040528251600781900b811461047057600080fd5b815261047e602084016103e9565b602082015261048f60408401610406565b6040820152606083015160608201528091505092915050565b81835281816020850137506000828201602090810191909152601f909101601f19169091010190565b60208082528181018390526000906040600585901b8401810190840186845b8781101561055f57868403603f190183528135368a9003601e1901811261051657600080fd5b8901803567ffffffffffffffff81111561052f57600080fd5b8036038b131561053e57600080fd5b61054b86828985016104a8565b9550505091840191908401906001016104f0565b5091979650505050505050565b60006020828403121561057e57600080fd5b505191905056fea26469706673582212205d7a5e1856ba7a5ac5f0471280bd41bd8f274c6e9ad3dfe64a8057b660635c4564736f6c63430008090033",
  "linkReferences": {},
  "deployedLinkReferences": {}
}