{"abi":[{"type":"function","name":"createTask","inputs":[{"name":"_name","type":"string","internalType":"string"}],"outputs":[],"stateMutability":"nonpayable"},{"type":"function","name":"getAllTasks","inputs":[],"outputs":[{"name":"","type":"bytes32[]","internalType":"bytes32[]"},{"name":"","type":"bool[]","internalType":"bool[]"},{"name":"","type":"uint256[]","internalType":"uint256[]"}],"stateMutability":"view"},{"type":"function","name":"toggleTask","inputs":[{"name":"index","type":"uint256","internalType":"uint256"}],"outputs":[],"stateMutability":"nonpayable"},{"type":"event","name":"CreateTask","inputs":[{"name":"","type":"uint256","indexed":false,"internalType":"uint256"}],"anonymous":false},{"type":"event","name":"ToggleTask","inputs":[{"name":"","type":"uint256","indexed":false,"internalType":"uint256"}],"anonymous":false}],"bytecode":{"object":"0x6080604052348015600e575f5ffd5b506109a68061001c5f395ff3fe608060405234801561000f575f5ffd5b506004361061003f575f3560e01c8063111002aa14610043578063613137a41461005f578063779900b41461007b575b5f5ffd5b61005d60048036038101906100589190610554565b61009b565b005b610079600480360381019061007491906105ce565b610159565b005b6100836101eb565b60405161009293929190610832565b60405180910390f35b6100a36103e7565b816100ad906108b5565b815f018181525050428160400181815250505f81908060018154018082558091505060019003905f5260205f2090600302015f909190919091505f820151815f01556020820151816001015f6101000a81548160ff0219169083151502179055506040820151816002015550507fd1eec9763ffbe4fc50c1bb980ac1cd9b23f4c06f89ae677550d78afcdf7301875f8054905060405161014d919061092a565b60405180910390a15050565b5f5f828154811061016d5761016c610943565b5b905f5260205f2090600302019050806001015f9054906101000a900460ff1615816001015f6101000a81548160ff0219169083151502179055504281600201819055507f191c7851e38f9d5ddf588dec717c72848a2d6fdd613c8e8ad06c6ef8c274b4f5826040516101df919061092a565b60405180910390a15050565b60608060605f5f8054905067ffffffffffffffff81111561020f5761020e610430565b5b60405190808252806020026020018201604052801561023d5781602001602082028036833780820191505090505b5090505f5f8054905067ffffffffffffffff81111561025f5761025e610430565b5b60405190808252806020026020018201604052801561028d5781602001602082028036833780820191505090505b5090505f5f8054905067ffffffffffffffff8111156102af576102ae610430565b5b6040519080825280602002602001820160405280156102dd5781602001602082028036833780820191505090505b5090505f5f90505b5f805490508110156103d5575f818154811061030457610303610943565b5b905f5260205f2090600302015f015484828151811061032657610325610943565b5b6020026020010181815250505f818154811061034557610344610943565b5b905f5260205f2090600302016001015f9054906101000a900460ff1683828151811061037457610373610943565b5b6020026020010190151590811515815250505f818154811061039957610398610943565b5b905f5260205f209060030201600201548282815181106103bc576103bb610943565b5b60200260200101818152505080806001019150506102e5565b50828282955095509550505050909192565b60405180606001604052805f81526020015f151581526020015f81525090565b5f604051905090565b5f5ffd5b5f5ffd5b5f5ffd5b5f5ffd5b5f601f19601f8301169050919050565b7f4e487b71000000000000000000000000000000000000000000000000000000005f52604160045260245ffd5b61046682610420565b810181811067ffffffffffffffff8211171561048557610484610430565b5b80604052505050565b5f610497610407565b90506104a3828261045d565b919050565b5f67ffffffffffffffff8211156104c2576104c1610430565b5b6104cb82610420565b9050602081019050919050565b828183375f83830152505050565b5f6104f86104f3846104a8565b61048e565b9050828152602081018484840111156105145761051361041c565b5b61051f8482856104d8565b509392505050565b5f82601f83011261053b5761053a610418565b5b813561054b8482602086016104e6565b91505092915050565b5f6020828403121561056957610568610410565b5b5f82013567ffffffffffffffff81111561058657610585610414565b5b61059284828501610527565b91505092915050565b5f819050919050565b6105ad8161059b565b81146105b7575f5ffd5b50565b5f813590506105c8816105a4565b92915050565b5f602082840312156105e3576105e2610410565b5b5f6105f0848285016105ba565b91505092915050565b5f81519050919050565b5f82825260208201905092915050565b5f819050602082019050919050565b5f819050919050565b61063481610622565b82525050565b5f610645838361062b565b60208301905092915050565b5f602082019050919050565b5f610667826105f9565b6106718185610603565b935061067c83610613565b805f5b838110156106ac578151610693888261063a565b975061069e83610651565b92505060018101905061067f565b5085935050505092915050565b5f81519050919050565b5f82825260208201905092915050565b5f819050602082019050919050565b5f8115159050919050565b6106f6816106e2565b82525050565b5f61070783836106ed565b60208301905092915050565b5f602082019050919050565b5f610729826106b9565b61073381856106c3565b935061073e836106d3565b805f5b8381101561076e57815161075588826106fc565b975061076083610713565b925050600181019050610741565b5085935050505092915050565b5f81519050919050565b5f82825260208201905092915050565b5f819050602082019050919050565b6107ad8161059b565b82525050565b5f6107be83836107a4565b60208301905092915050565b5f602082019050919050565b5f6107e08261077b565b6107ea8185610785565b93506107f583610795565b805f5b8381101561082557815161080c88826107b3565b9750610817836107ca565b9250506001810190506107f8565b5085935050505092915050565b5f6060820190508181035f83015261084a818661065d565b9050818103602083015261085e818561071f565b9050818103604083015261087281846107d6565b9050949350505050565b5f81519050919050565b5f819050602082019050919050565b5f6108a08251610622565b80915050919050565b5f82821b905092915050565b5f6108bf8261087c565b826108c984610886565b90506108d481610895565b925060208210156109145761090f7fffffffffffffffffffffffffffffffffffffffffffffffffffffffffffffffff836020036008026108a9565b831692505b5050919050565b6109248161059b565b82525050565b5f60208201905061093d5f83018461091b565b92915050565b7f4e487b71000000000000000000000000000000000000000000000000000000005f52603260045260245ffdfea2646970667358221220acdd8d2024910ec26e2ac2c2eb40e9ac10c8943b8f5d8bd436d0174d0ccdcb9064736f6c634300081c0033","linkReferences":{}},"methodIdentifiers":{"createTask(string)":"111002aa","getAllTasks()":"779900b4","toggleTask(uint256)":"613137a4"},"id":16}