{
    "abi": [
        {
            "type": "function",
            "name": "campaigns",
            "inputs": [
                {
                    "name": "",
                    "type": "uint256",
                    "internalType": "uint256"
                }
            ],
            "outputs": [
                {
                    "name": "",
                    "type": "address",
                    "internalType": "address"
                }
            ],
            "stateMutability": "view"
        },
        {
            "type": "function",
            "name": "createCampaign",
            "inputs": [
                {
                    "name": "title",
                    "type": "string",
                    "internalType": "string"
                },
                {
                    "name": "description",
                    "type": "string",
                    "internalType": "string"
                }
            ],
            "outputs": [],
            "stateMutability": "nonpayable"
        },
        {
            "type": "function",
            "name": "getCampaigns",
            "inputs": [],
            "outputs": [
                {
                    "name": "",
                    "type": "address[]",
                    "internalType": "address[]"
                }
            ],
            "stateMutability": "view"
        }
    ],
    "bytecode": {
        "object": "0x6080604052348015600f57600080fd5b50610a678061001f6000396000f3fe608060405234801561001057600080fd5b50600436106100415760003560e01c8063141961bc14610046578063a6b0363314610076578063fce3f6ac1461008b575b600080fd5b6100596100543660046101c3565b6100a0565b6040516001600160a01b0390911681526020015b60405180910390f35b61007e6100ca565b60405161006d91906101dc565b61009e6100993660046102cd565b61012c565b005b600081815481106100b057600080fd5b6000918252602090912001546001600160a01b0316905081565b6060600080548060200260200160405190810160405280929190818152602001828054801561012257602002820191906000526020600020905b81546001600160a01b03168152600190910190602001808311610104575b5050505050905090565b6000828260405161013c906101b6565b61014792919061037c565b604051809103906000f080158015610163573d6000803e3d6000fd5b50600080546001810182559080527f290decd9548b62a8d60345a988386fc84ba6bc95484008f6362f93160ef3e5630180546001600160a01b0319166001600160a01b0392909216919091179055505050565b610687806103ab83390190565b6000602082840312156101d557600080fd5b5035919050565b602080825282518282018190526000918401906040840190835b8181101561021d5783516001600160a01b03168352602093840193909201916001016101f6565b509095945050505050565b634e487b7160e01b600052604160045260246000fd5b600082601f83011261024f57600080fd5b813567ffffffffffffffff81111561026957610269610228565b604051601f8201601f19908116603f0116810167ffffffffffffffff8111828210171561029857610298610228565b6040528181528382016020018510156102b057600080fd5b816020850160208301376000918101602001919091529392505050565b600080604083850312156102e057600080fd5b823567ffffffffffffffff8111156102f757600080fd5b6103038582860161023e565b925050602083013567ffffffffffffffff81111561032057600080fd5b61032c8582860161023e565b9150509250929050565b6000815180845260005b8181101561035c57602081850181015186830182015201610340565b506000602082860101526020601f19601f83011685010191505092915050565b60408152600061038f6040830185610336565b82810360208401526103a18185610336565b9594505050505056fe608060405234801561001057600080fd5b5060405161068738038061068783398101604081905261002f9161011b565b600080546001600160a01b03191633179055600161004d838261020d565b50600261005a828261020d565b5050506102cb565b634e487b7160e01b600052604160045260246000fd5b600082601f83011261008957600080fd5b81516001600160401b038111156100a2576100a2610062565b604051601f8201601f19908116603f011681016001600160401b03811182821017156100d0576100d0610062565b6040528181528382016020018510156100e857600080fd5b60005b82811015610107576020818601810151838301820152016100eb565b506000918101602001919091529392505050565b6000806040838503121561012e57600080fd5b82516001600160401b0381111561014457600080fd5b61015085828601610078565b602085015190935090506001600160401b0381111561016e57600080fd5b61017a85828601610078565b9150509250929050565b600181811c9082168061019857607f821691505b6020821081036101b857634e487b7160e01b600052602260045260246000fd5b50919050565b601f82111561020857806000526020600020601f840160051c810160208510156101e55750805b601f840160051c820191505b8181101561020557600081556001016101f1565b50505b505050565b81516001600160401b0381111561022657610226610062565b61023a816102348454610184565b846101be565b6020601f82116001811461026e57600083156102565750848201515b600019600385901b1c1916600184901b178455610205565b600084815260208120601f198516915b8281101561029e578785015182556020948501946001909201910161027e565b50848210156102bc5786840151600019600387901b60f8161c191681555b50505050600190811b01905550565b6103ad806102da6000396000f3fe60806040526004361061004a5760003560e01c80633ccfd60b1461004f5780634a79d50c146100665780637284e416146100915780638da5cb5b146100a6578063d7bb99ba146100de575b600080fd5b34801561005b57600080fd5b506100646100e6565b005b34801561007257600080fd5b5061007b6101e3565b60405161008891906102ef565b60405180910390f35b34801561009d57600080fd5b5061007b610271565b3480156100b257600080fd5b506000546100c6906001600160a01b031681565b6040516001600160a01b039091168152602001610088565b61006461027e565b6000546001600160a01b031633146101455760405162461bcd60e51b815260206004820152601d60248201527f4f6e6c79206f776e65722063616e2077697468647261772066756e647300000060448201526064015b60405180910390fd5b6000336001600160a01b0316476040515b60006040518083038185875af1925050503d8060008114610193576040519150601f19603f3d011682016040523d82523d6000602084013e610198565b606091505b50509050806101e05760405162461bcd60e51b81526020600482015260146024820152734661696c656420746f2073656e642066756e647360601b604482015260640161013c565b50565b600180546101f09061033d565b80601f016020809104026020016040519081016040528092919081815260200182805461021c9061033d565b80156102695780601f1061023e57610100808354040283529160200191610269565b820191906000526020600020905b81548152906001019060200180831161024c57829003601f168201915b505050505081565b600280546101f09061033d565b600034116102da5760405162461bcd60e51b815260206004820152602360248201527f436f6e747269627574696f6e206d75737420626520677265617465722074686160448201526206e20360ec1b606482015260840161013c565b6000306001600160a01b031634604051610156565b602081526000825180602084015260005b8181101561031d5760208186018101516040868401015201610300565b506000604082850101526040601f19601f83011684010191505092915050565b600181811c9082168061035157607f821691505b60208210810361037157634e487b7160e01b600052602260045260246000fd5b5091905056fea26469706673582212201fb4a52834fac6a115bdc75420344fc9a4307154bae2b25d860a332e9db609cb64736f6c634300081a0033a2646970667358221220e69865dfd5ee1e0087c5f667a957fa4cb0d9645e2be8b161c5d9704a2a838a5064736f6c634300081a0033",
        "linkReferences": {}
    },
    "methodIdentifiers": {
        "campaigns(uint256)": "141961bc",
        "createCampaign(string,string)": "fce3f6ac",
        "getCampaigns()": "a6b03633"
    },
    "id": 24
}