{
  "_format": "hh-sol-artifact-1",
  "contractName": "HelloWorld",
  "sourceName": "contracts/HelloWorld.sol",
  "abi": [
    {
      "inputs": [
        {
          "internalType": "string",
          "name": "_message",
          "type": "string"
        }
      ],
      "stateMutability": "nonpayable",
      "type": "constructor"
    },
    {
      "inputs": [],
      "name": "message",
      "outputs": [
        {
          "internalType": "string",
          "name": "",
          "type": "string"
        }
      ],
      "stateMutability": "view",
      "type": "function"
    },
    {
      "inputs": [
        {
          "internalType": "string",
          "name": "_message",
          "type": "string"
        }
      ],
      "name": "setMessage",
      "outputs": [],
      "stateMutability": "nonpayable",
      "type": "function"
    }
  ],
  "bytecode": "0x608060405234801561001057600080fd5b5060405161062138038061062183398101604081905261002f91610058565b600061003b82826101ad565b505061026b565b634e487b7160e01b600052604160045260246000fd5b60006020828403121561006a57600080fd5b81516001600160401b0381111561008057600080fd5b8201601f8101841361009157600080fd5b80516001600160401b038111156100aa576100aa610042565b604051601f8201601f19908116603f011681016001600160401b03811182821017156100d8576100d8610042565b6040528181528282016020018610156100f057600080fd5b60005b8281101561010f576020818501810151838301820152016100f3565b50600091810160200191909152949350505050565b600181811c9082168061013857607f821691505b60208210810361015857634e487b7160e01b600052602260045260246000fd5b50919050565b601f8211156101a857806000526020600020601f840160051c810160208510156101855750805b601f840160051c820191505b818110156101a55760008155600101610191565b50505b505050565b81516001600160401b038111156101c6576101c6610042565b6101da816101d48454610124565b8461015e565b6020601f82116001811461020e57600083156101f65750848201515b600019600385901b1c1916600184901b1784556101a5565b600084815260208120601f198516915b8281101561023e578785015182556020948501946001909201910161021e565b508482101561025c5786840151600019600387901b60f8161c191681555b50505050600190811b01905550565b6103a78061027a6000396000f3fe608060405234801561001057600080fd5b50600436106100365760003560e01c8063368b87721461003b578063e21f37ce14610050575b600080fd5b61004e610049366004610122565b61006e565b005b61005861007e565b60405161006591906101db565b60405180910390f35b600061007a82826102b2565b5050565b6000805461008b90610229565b80601f01602080910402602001604051908101604052809291908181526020018280546100b790610229565b80156101045780601f106100d957610100808354040283529160200191610104565b820191906000526020600020905b8154815290600101906020018083116100e757829003601f168201915b505050505081565b634e487b7160e01b600052604160045260246000fd5b60006020828403121561013457600080fd5b813567ffffffffffffffff81111561014b57600080fd5b8201601f8101841361015c57600080fd5b803567ffffffffffffffff8111156101765761017661010c565b604051601f8201601f19908116603f0116810167ffffffffffffffff811182821017156101a5576101a561010c565b6040528181528282016020018610156101bd57600080fd5b81602084016020830137600091810160200191909152949350505050565b602081526000825180602084015260005b8181101561020957602081860181015160408684010152016101ec565b506000604082850101526040601f19601f83011684010191505092915050565b600181811c9082168061023d57607f821691505b60208210810361025d57634e487b7160e01b600052602260045260246000fd5b50919050565b601f8211156102ad57806000526020600020601f840160051c8101602085101561028a5750805b601f840160051c820191505b818110156102aa5760008155600101610296565b50505b505050565b815167ffffffffffffffff8111156102cc576102cc61010c565b6102e0816102da8454610229565b84610263565b6020601f82116001811461031457600083156102fc5750848201515b600019600385901b1c1916600184901b1784556102aa565b600084815260208120601f198516915b828110156103445787850151825560209485019460019092019101610324565b50848210156103625786840151600019600387901b60f8161c191681555b50505050600190811b0190555056fea26469706673582212200901b2e271d38e15a461cb148f993399b3ccb61d788adadb0e62f7d9526a4ff764736f6c634300081a0033",
  "linkReferences": {},
  "deployedLinkReferences": {}
}