{
  "_format": "hh-sol-artifact-1",
  "contractName": "Guestbook",
  "sourceName": "contracts/Guestbook.sol",
  "abi": [
    {
      "anonymous": false,
      "inputs": [
        {
          "indexed": false,
          "internalType": "string",
          "name": "name",
          "type": "string"
        },
        {
          "indexed": false,
          "internalType": "string",
          "name": "message",
          "type": "string"
        }
      ],
      "name": "EntrySigned",
      "type": "event"
    },
    {
      "inputs": [
        {
          "internalType": "uint256",
          "name": "",
          "type": "uint256"
        }
      ],
      "name": "entries",
      "outputs": [
        {
          "internalType": "string",
          "name": "name",
          "type": "string"
        },
        {
          "internalType": "string",
          "name": "message",
          "type": "string"
        }
      ],
      "stateMutability": "view",
      "type": "function"
    },
    {
      "inputs": [],
      "name": "getEntries",
      "outputs": [
        {
          "components": [
            {
              "internalType": "string",
              "name": "name",
              "type": "string"
            },
            {
              "internalType": "string",
              "name": "message",
              "type": "string"
            }
          ],
          "internalType": "struct Guestbook.Entry[]",
          "name": "",
          "type": "tuple[]"
        }
      ],
      "stateMutability": "view",
      "type": "function"
    },
    {
      "inputs": [
        {
          "internalType": "string",
          "name": "_name",
          "type": "string"
        },
        {
          "internalType": "string",
          "name": "_message",
          "type": "string"
        }
      ],
      "name": "signGuestbook",
      "outputs": [],
      "stateMutability": "nonpayable",
      "type": "function"
    }
  ],
  "bytecode": "0x608060405234801561001057600080fd5b50610741806100206000396000f3fe608060405234801561001057600080fd5b50600436106100415760003560e01c80630ffcb0701461004657806317be85c31461005b578063b30906d414610079575b600080fd5b610059610054366004610553565b61009a565b005b610063610150565b6040516100709190610604565b60405180910390f35b61008c610087366004610689565b6102d3565b6040516100709291906106a2565b604080518082019091528281526020808201839052600080546001810182559080528251805160029092027f290decd9548b62a8d60345a988386fc84ba6bc95484008f6362f93160ef3e56301926100f792849290910190610417565b5060208281015180516101109260018501920190610417565b5050507f0e8857b20aec2f13bb24d8ba5def534d3e73aa79fec2bcfd038c4d55e482deaa82826040516101449291906106a2565b60405180910390a15050565b60606000805480602002602001604051908101604052809291908181526020016000905b828210156102ca57838290600052602060002090600202016040518060400160405290816000820180546101a7906106d0565b80601f01602080910402602001604051908101604052809291908181526020018280546101d3906106d0565b80156102205780601f106101f557610100808354040283529160200191610220565b820191906000526020600020905b81548152906001019060200180831161020357829003601f168201915b50505050508152602001600182018054610239906106d0565b80601f0160208091040260200160405190810160405280929190818152602001828054610265906106d0565b80156102b25780601f10610287576101008083540402835291602001916102b2565b820191906000526020600020905b81548152906001019060200180831161029557829003601f168201915b50505050508152505081526020019060010190610174565b50505050905090565b600081815481106102e357600080fd5b9060005260206000209060020201600091509050806000018054610306906106d0565b80601f0160208091040260200160405190810160405280929190818152602001828054610332906106d0565b801561037f5780601f106103545761010080835404028352916020019161037f565b820191906000526020600020905b81548152906001019060200180831161036257829003601f168201915b505050505090806001018054610394906106d0565b80601f01602080910402602001604051908101604052809291908181526020018280546103c0906106d0565b801561040d5780601f106103e25761010080835404028352916020019161040d565b820191906000526020600020905b8154815290600101906020018083116103f057829003601f168201915b5050505050905082565b828054610423906106d0565b90600052602060002090601f016020900481019282610445576000855561048b565b82601f1061045e57805160ff191683800117855561048b565b8280016001018555821561048b579182015b8281111561048b578251825591602001919060010190610470565b5061049792915061049b565b5090565b5b80821115610497576000815560010161049c565b634e487b7160e01b600052604160045260246000fd5b600082601f8301126104d757600080fd5b813567ffffffffffffffff808211156104f2576104f26104b0565b604051601f8301601f19908116603f0116810190828211818310171561051a5761051a6104b0565b8160405283815286602085880101111561053357600080fd5b836020870160208301376000602085830101528094505050505092915050565b6000806040838503121561056657600080fd5b823567ffffffffffffffff8082111561057e57600080fd5b61058a868387016104c6565b935060208501359150808211156105a057600080fd5b506105ad858286016104c6565b9150509250929050565b6000815180845260005b818110156105dd576020818501810151868301820152016105c1565b818111156105ef576000602083870101525b50601f01601f19169290920160200192915050565b60006020808301818452808551808352604092508286019150828160051b87010184880160005b8381101561067b57888303603f190185528151805187855261064f888601826105b7565b91890151858303868b015291905061066781836105b7565b96890196945050509086019060010161062b565b509098975050505050505050565b60006020828403121561069b57600080fd5b5035919050565b6040815260006106b560408301856105b7565b82810360208401526106c781856105b7565b95945050505050565b600181811c908216806106e457607f821691505b6020821081141561070557634e487b7160e01b600052602260045260246000fd5b5091905056fea2646970667358221220de103d949600ba48036fe9ffaeb124297b28761f8942a55ba1c54f20c27d399964736f6c63430008090033",
  "linkReferences": {},
  "deployedLinkReferences": {}
}