{
  "_format": "hh-sol-artifact-1",
  "contractName": "Guestbook",
  "sourceName": "contracts/Guestbook.sol",
  "abi": [
    {
      "inputs": [
        {
          "internalType": "uint256",
          "name": "",
          "type": "uint256"
        }
      ],
      "name": "entries",
      "outputs": [
        {
          "internalType": "string",
          "name": "name",
          "type": "string"
        },
        {
          "internalType": "string",
          "name": "message",
          "type": "string"
        }
      ],
      "stateMutability": "view",
      "type": "function"
    },
    {
      "inputs": [],
      "name": "getEntries",
      "outputs": [
        {
          "components": [
            {
              "internalType": "string",
              "name": "name",
              "type": "string"
            },
            {
              "internalType": "string",
              "name": "message",
              "type": "string"
            }
          ],
          "internalType": "struct Guestbook.Entry[]",
          "name": "",
          "type": "tuple[]"
        }
      ],
      "stateMutability": "view",
      "type": "function"
    },
    {
      "inputs": [
        {
          "internalType": "string",
          "name": "_name",
          "type": "string"
        },
        {
          "internalType": "string",
          "name": "_message",
          "type": "string"
        }
      ],
      "name": "signGuestbook",
      "outputs": [],
      "stateMutability": "nonpayable",
      "type": "function"
    }
  ],
  "bytecode": "0x608060405234801561001057600080fd5b50610708806100206000396000f3fe608060405234801561001057600080fd5b50600436106100415760003560e01c80630ffcb0701461004657806317be85c31461005b578063b30906d414610079575b600080fd5b61005961005436600461051a565b61009a565b005b610063610117565b60405161007091906105cb565b60405180910390f35b61008c610087366004610650565b61029a565b604051610070929190610669565b604080518082019091528281526020808201839052600080546001810182559080528251805160029092027f290decd9548b62a8d60345a988386fc84ba6bc95484008f6362f93160ef3e56301926100f7928492909101906103de565b50602082810151805161011092600185019201906103de565b5050505050565b60606000805480602002602001604051908101604052809291908181526020016000905b82821015610291578382906000526020600020906002020160405180604001604052908160008201805461016e90610697565b80601f016020809104026020016040519081016040528092919081815260200182805461019a90610697565b80156101e75780601f106101bc576101008083540402835291602001916101e7565b820191906000526020600020905b8154815290600101906020018083116101ca57829003601f168201915b5050505050815260200160018201805461020090610697565b80601f016020809104026020016040519081016040528092919081815260200182805461022c90610697565b80156102795780601f1061024e57610100808354040283529160200191610279565b820191906000526020600020905b81548152906001019060200180831161025c57829003601f168201915b5050505050815250508152602001906001019061013b565b50505050905090565b600081815481106102aa57600080fd5b90600052602060002090600202016000915090508060000180546102cd90610697565b80601f01602080910402602001604051908101604052809291908181526020018280546102f990610697565b80156103465780601f1061031b57610100808354040283529160200191610346565b820191906000526020600020905b81548152906001019060200180831161032957829003601f168201915b50505050509080600101805461035b90610697565b80601f016020809104026020016040519081016040528092919081815260200182805461038790610697565b80156103d45780601f106103a9576101008083540402835291602001916103d4565b820191906000526020600020905b8154815290600101906020018083116103b757829003601f168201915b5050505050905082565b8280546103ea90610697565b90600052602060002090601f01602090048101928261040c5760008555610452565b82601f1061042557805160ff1916838001178555610452565b82800160010185558215610452579182015b82811115610452578251825591602001919060010190610437565b5061045e929150610462565b5090565b5b8082111561045e5760008155600101610463565b634e487b7160e01b600052604160045260246000fd5b600082601f83011261049e57600080fd5b813567ffffffffffffffff808211156104b9576104b9610477565b604051601f8301601f19908116603f011681019082821181831017156104e1576104e1610477565b816040528381528660208588010111156104fa57600080fd5b836020870160208301376000602085830101528094505050505092915050565b6000806040838503121561052d57600080fd5b823567ffffffffffffffff8082111561054557600080fd5b6105518683870161048d565b9350602085013591508082111561056757600080fd5b506105748582860161048d565b9150509250929050565b6000815180845260005b818110156105a457602081850181015186830182015201610588565b818111156105b6576000602083870101525b50601f01601f19169290920160200192915050565b60006020808301818452808551808352604092508286019150828160051b87010184880160005b8381101561064257888303603f19018552815180518785526106168886018261057e565b91890151858303868b015291905061062e818361057e565b9689019694505050908601906001016105f2565b509098975050505050505050565b60006020828403121561066257600080fd5b5035919050565b60408152600061067c604083018561057e565b828103602084015261068e818561057e565b95945050505050565b600181811c908216806106ab57607f821691505b602082108114156106cc57634e487b7160e01b600052602260045260246000fd5b5091905056fea2646970667358221220ca825073939092d2af5503e3f42b9b9949e9d3f624ced5b1bcbc6baac14e43e264736f6c63430008090033",
  "linkReferences": {},
  "deployedLinkReferences": {}
}