{
  "contracts/Random.sol": {
    "GuessTheNumber": {
      "abi": [
        {
          "inputs": [],
          "stateMutability": "nonpayable",
          "type": "constructor"
        },
        {
          "anonymous": false,
          "inputs": [
            {
              "indexed": false,
              "internalType": "bool",
              "name": "win",
              "type": "bool"
            },
            {
              "indexed": false,
              "internalType": "uint256",
              "name": "guessedNumber",
              "type": "uint256"
            },
            {
              "indexed": false,
              "internalType": "uint256",
              "name": "correctNumber",
              "type": "uint256"
            }
          ],
          "name": "GameResult",
          "type": "event"
        },
        {
          "inputs": [],
          "name": "endGame",
          "outputs": [],
          "stateMutability": "nonpayable",
          "type": "function"
        },
        {
          "inputs": [],
          "name": "generateRandomNumber",
          "outputs": [],
          "stateMutability": "nonpayable",
          "type": "function"
        },
        {
          "inputs": [],
          "name": "getRandomNumber",
          "outputs": [
            {
              "internalType": "uint256",
              "name": "",
              "type": "uint256"
            }
          ],
          "stateMutability": "view",
          "type": "function"
        },
        {
          "inputs": [
            {
              "internalType": "uint256",
              "name": "_guess",
              "type": "uint256"
            }
          ],
          "name": "guess",
          "outputs": [
            {
              "internalType": "string",
              "name": "",
              "type": "string"
            }
          ],
          "stateMutability": "nonpayable",
          "type": "function"
        },
        {
          "inputs": [],
          "name": "isGameActive",
          "outputs": [
            {
              "internalType": "bool",
              "name": "",
              "type": "bool"
            }
          ],
          "stateMutability": "view",
          "type": "function"
        },
        {
          "inputs": [],
          "name": "owner",
          "outputs": [
            {
              "internalType": "address",
              "name": "",
              "type": "address"
            }
          ],
          "stateMutability": "view",
          "type": "function"
        },
        {
          "inputs": [],
          "name": "restartGame",
          "outputs": [],
          "stateMutability": "nonpayable",
          "type": "function"
        }
      ],
      "evm": {
        "bytecode": {
          "linkReferences": {},
          "object": "608060405234801561001057600080fd5b50600080546001600160a01b031916331790556002805460ff1916600117905561003861003d565b6100d7565b600a424460405160200161005b929190918252602082015260400190565b6040516020818303038152906040528051906020012060001c61007e919061008e565b6100899060016100b0565b600155565b6000826100ab57634e487b7160e01b600052601260045260246000fd5b500690565b808201808211156100d157634e487b7160e01b600052601160045260246000fd5b92915050565b61050b806100e66000396000f3fe608060405234801561001057600080fd5b506004361061007d5760003560e01c80638d25af041161005b5780638d25af04146100b65780638da5cb5b146100be5780639189fec1146100e9578063dbdff2c11461010957600080fd5b80630c0ef2b0146100825780636cbc2ded146100a4578063773a1154146100ae575b600080fd5b60025461008f9060ff1681565b60405190151581526020015b60405180910390f35b6100ac61011a565b005b6100ac610185565b6100ac6101d6565b6000546100d1906001600160a01b031681565b6040516001600160a01b03909116815260200161009b565b6100fc6100f73660046103f5565b610253565b60405161009b919061040e565b60015460405190815260200161009b565b6000546001600160a01b031633146101795760405162461bcd60e51b815260206004820181905260248201527f4f6e6c7920746865206f776e65722063616e20656e64207468652067616d652e60448201526064015b60405180910390fd5b6002805460ff19169055565b600a42446040516020016101a3929190918252602082015260400190565b6040516020818303038152906040528051906020012060001c6101c6919061045c565b6101d190600161047e565b600155565b6000546001600160a01b0316331461023c5760405162461bcd60e51b8152602060048201526024808201527f4f6e6c7920746865206f776e65722063616e207265737461727420746865206760448201526330b6b29760e11b6064820152608401610170565b6002805460ff19166001179055610251610185565b565b60025460609060ff166102a85760405162461bcd60e51b815260206004820152601760248201527f5468652067616d65206973206e6f74206163746976652e0000000000000000006044820152606401610170565b600182101580156102ba5750600a8211155b6103065760405162461bcd60e51b815260206004820152601f60248201527f4775657373206d757374206265206265747765656e203120616e642031302e006044820152606401610170565b6001548203610378576001805460408051928352602083018590528201527fe8ab5c1aa78ca04c4f8f88e69fc783b96ed083de17f3004002d6f7a2b602cead9060600160405180910390a1610359610185565b6040518060600160405280603081526020016104a66030913992915050565b60015460408051600081526020810185905280820192909252517fe8ab5c1aa78ca04c4f8f88e69fc783b96ed083de17f3004002d6f7a2b602cead9181900360600190a1505060408051808201909152601e81527f536f7272792c2077726f6e672067756573732e2054727920616761696e210000602082015290565b60006020828403121561040757600080fd5b5035919050565b600060208083528351808285015260005b8181101561043b5785810183015185820160400152820161041f565b506000604082860101526040601f19601f8301168501019250505092915050565b60008261047957634e487b7160e01b600052601260045260246000fd5b500690565b8082018082111561049f57634e487b7160e01b600052601160045260246000fd5b9291505056fe436f6e67726174756c6174696f6e732c20796f7520677565737365642074686520636f7272656374206e756d62657221a264697066735822122072c2b3f46b631033bb07ca957350ca2611261ade4c9f8f6da60537e9f6fa2a0864736f6c63430008130033",
          "opcodes": "PUSH1 0x80 PUSH1 0x40 MSTORE CALLVALUE DUP1 ISZERO PUSH2 0x10 JUMPI PUSH1 0x0 DUP1 REVERT JUMPDEST POP PUSH1 0x0 DUP1 SLOAD PUSH1 0x1 PUSH1 0x1 PUSH1 0xA0 SHL SUB NOT AND CALLER OR SWAP1 SSTORE PUSH1 0x2 DUP1 SLOAD PUSH1 0xFF NOT AND PUSH1 0x1 OR SWAP1 SSTORE PUSH2 0x38 PUSH2 0x3D JUMP JUMPDEST PUSH2 0xD7 JUMP JUMPDEST PUSH1 0xA TIMESTAMP PREVRANDAO PUSH1 0x40 MLOAD PUSH1 0x20 ADD PUSH2 0x5B SWAP3 SWAP2 SWAP1 SWAP2 DUP3 MSTORE PUSH1 0x20 DUP3 ADD MSTORE PUSH1 0x40 ADD SWAP1 JUMP JUMPDEST PUSH1 0x40 MLOAD PUSH1 0x20 DUP2 DUP4 SUB SUB DUP2 MSTORE SWAP1 PUSH1 0x40 MSTORE DUP1 MLOAD SWAP1 PUSH1 0x20 ADD KECCAK256 PUSH1 0x0 SHR PUSH2 0x7E SWAP2 SWAP1 PUSH2 0x8E JUMP JUMPDEST PUSH2 0x89 SWAP1 PUSH1 0x1 PUSH2 0xB0 JUMP JUMPDEST PUSH1 0x1 SSTORE JUMP JUMPDEST PUSH1 0x0 DUP3 PUSH2 0xAB JUMPI PUSH4 0x4E487B71 PUSH1 0xE0 SHL PUSH1 0x0 MSTORE PUSH1 0x12 PUSH1 0x4 MSTORE PUSH1 0x24 PUSH1 0x0 REVERT JUMPDEST POP MOD SWAP1 JUMP JUMPDEST DUP1 DUP3 ADD DUP1 DUP3 GT ISZERO PUSH2 0xD1 JUMPI PUSH4 0x4E487B71 PUSH1 0xE0 SHL PUSH1 0x0 MSTORE PUSH1 0x11 PUSH1 0x4 MSTORE PUSH1 0x24 PUSH1 0x0 REVERT JUMPDEST SWAP3 SWAP2 POP POP JUMP JUMPDEST PUSH2 0x50B DUP1 PUSH2 0xE6 PUSH1 0x0 CODECOPY PUSH1 0x0 RETURN INVALID PUSH1 0x80 PUSH1 0x40 MSTORE CALLVALUE DUP1 ISZERO PUSH2 0x10 JUMPI PUSH1 0x0 DUP1 REVERT JUMPDEST POP PUSH1 0x4 CALLDATASIZE LT PUSH2 0x7D JUMPI PUSH1 0x0 CALLDATALOAD PUSH1 0xE0 SHR DUP1 PUSH4 0x8D25AF04 GT PUSH2 0x5B JUMPI DUP1 PUSH4 0x8D25AF04 EQ PUSH2 0xB6 JUMPI DUP1 PUSH4 0x8DA5CB5B EQ PUSH2 0xBE JUMPI DUP1 PUSH4 0x9189FEC1 EQ PUSH2 0xE9 JUMPI DUP1 PUSH4 0xDBDFF2C1 EQ PUSH2 0x109 JUMPI PUSH1 0x0 DUP1 REVERT JUMPDEST DUP1 PUSH4 0xC0EF2B0 EQ PUSH2 0x82 JUMPI DUP1 PUSH4 0x6CBC2DED EQ PUSH2 0xA4 JUMPI DUP1 PUSH4 0x773A1154 EQ PUSH2 0xAE JUMPI JUMPDEST PUSH1 0x0 DUP1 REVERT JUMPDEST PUSH1 0x2 SLOAD PUSH2 0x8F SWAP1 PUSH1 0xFF AND DUP2 JUMP JUMPDEST PUSH1 0x40 MLOAD SWAP1 ISZERO ISZERO DUP2 MSTORE PUSH1 0x20 ADD JUMPDEST PUSH1 0x40 MLOAD DUP1 SWAP2 SUB SWAP1 RETURN JUMPDEST PUSH2 0xAC PUSH2 0x11A JUMP JUMPDEST STOP JUMPDEST PUSH2 0xAC PUSH2 0x185 JUMP JUMPDEST PUSH2 0xAC PUSH2 0x1D6 JUMP JUMPDEST PUSH1 0x0 SLOAD PUSH2 0xD1 SWAP1 PUSH1 0x1 PUSH1 0x1 PUSH1 0xA0 SHL SUB AND DUP2 JUMP JUMPDEST PUSH1 0x40 MLOAD PUSH1 0x1 PUSH1 0x1 PUSH1 0xA0 SHL SUB SWAP1 SWAP2 AND DUP2 MSTORE PUSH1 0x20 ADD PUSH2 0x9B JUMP JUMPDEST PUSH2 0xFC PUSH2 0xF7 CALLDATASIZE PUSH1 0x4 PUSH2 0x3F5 JUMP JUMPDEST PUSH2 0x253 JUMP JUMPDEST PUSH1 0x40 MLOAD PUSH2 0x9B SWAP2 SWAP1 PUSH2 0x40E JUMP JUMPDEST PUSH1 0x1 SLOAD PUSH1 0x40 MLOAD SWAP1 DUP2 MSTORE PUSH1 0x20 ADD PUSH2 0x9B JUMP JUMPDEST PUSH1 0x0 SLOAD PUSH1 0x1 PUSH1 0x1 PUSH1 0xA0 SHL SUB AND CALLER EQ PUSH2 0x179 JUMPI PUSH1 0x40 MLOAD PUSH3 0x461BCD PUSH1 0xE5 SHL DUP2 MSTORE PUSH1 0x20 PUSH1 0x4 DUP3 ADD DUP2 SWAP1 MSTORE PUSH1 0x24 DUP3 ADD MSTORE PUSH32 0x4F6E6C7920746865206F776E65722063616E20656E64207468652067616D652E PUSH1 0x44 DUP3 ADD MSTORE PUSH1 0x64 ADD JUMPDEST PUSH1 0x40 MLOAD DUP1 SWAP2 SUB SWAP1 REVERT JUMPDEST PUSH1 0x2 DUP1 SLOAD PUSH1 0xFF NOT AND SWAP1 SSTORE JUMP JUMPDEST PUSH1 0xA TIMESTAMP PREVRANDAO PUSH1 0x40 MLOAD PUSH1 0x20 ADD PUSH2 0x1A3 SWAP3 SWAP2 SWAP1 SWAP2 DUP3 MSTORE PUSH1 0x20 DUP3 ADD MSTORE PUSH1 0x40 ADD SWAP1 JUMP JUMPDEST PUSH1 0x40 MLOAD PUSH1 0x20 DUP2 DUP4 SUB SUB DUP2 MSTORE SWAP1 PUSH1 0x40 MSTORE DUP1 MLOAD SWAP1 PUSH1 0x20 ADD KECCAK256 PUSH1 0x0 SHR PUSH2 0x1C6 SWAP2 SWAP1 PUSH2 0x45C JUMP JUMPDEST PUSH2 0x1D1 SWAP1 PUSH1 0x1 PUSH2 0x47E JUMP JUMPDEST PUSH1 0x1 SSTORE JUMP JUMPDEST PUSH1 0x0 SLOAD PUSH1 0x1 PUSH1 0x1 PUSH1 0xA0 SHL SUB AND CALLER EQ PUSH2 0x23C JUMPI PUSH1 0x40 MLOAD PUSH3 0x461BCD PUSH1 0xE5 SHL DUP2 MSTORE PUSH1 0x20 PUSH1 0x4 DUP3 ADD MSTORE PUSH1 0x24 DUP1 DUP3 ADD MSTORE PUSH32 0x4F6E6C7920746865206F776E65722063616E2072657374617274207468652067 PUSH1 0x44 DUP3 ADD MSTORE PUSH4 0x30B6B297 PUSH1 0xE1 SHL PUSH1 0x64 DUP3 ADD MSTORE PUSH1 0x84 ADD PUSH2 0x170 JUMP JUMPDEST PUSH1 0x2 DUP1 SLOAD PUSH1 0xFF NOT AND PUSH1 0x1 OR SWAP1 SSTORE PUSH2 0x251 PUSH2 0x185 JUMP JUMPDEST JUMP JUMPDEST PUSH1 0x2 SLOAD PUSH1 0x60 SWAP1 PUSH1 0xFF AND PUSH2 0x2A8 JUMPI PUSH1 0x40 MLOAD PUSH3 0x461BCD PUSH1 0xE5 SHL DUP2 MSTORE PUSH1 0x20 PUSH1 0x4 DUP3 ADD MSTORE PUSH1 0x17 PUSH1 0x24 DUP3 ADD MSTORE PUSH32 0x5468652067616D65206973206E6F74206163746976652E000000000000000000 PUSH1 0x44 DUP3 ADD MSTORE PUSH1 0x64 ADD PUSH2 0x170 JUMP JUMPDEST PUSH1 0x1 DUP3 LT ISZERO DUP1 ISZERO PUSH2 0x2BA JUMPI POP PUSH1 0xA DUP3 GT ISZERO JUMPDEST PUSH2 0x306 JUMPI PUSH1 0x40 MLOAD PUSH3 0x461BCD PUSH1 0xE5 SHL DUP2 MSTORE PUSH1 0x20 PUSH1 0x4 DUP3 ADD MSTORE PUSH1 0x1F PUSH1 0x24 DUP3 ADD MSTORE PUSH32 0x4775657373206D757374206265206265747765656E203120616E642031302E00 PUSH1 0x44 DUP3 ADD MSTORE PUSH1 0x64 ADD PUSH2 0x170 JUMP JUMPDEST PUSH1 0x1 SLOAD DUP3 SUB PUSH2 0x378 JUMPI PUSH1 0x1 DUP1 SLOAD PUSH1 0x40 DUP1 MLOAD SWAP3 DUP4 MSTORE PUSH1 0x20 DUP4 ADD DUP6 SWAP1 MSTORE DUP3 ADD MSTORE PUSH32 0xE8AB5C1AA78CA04C4F8F88E69FC783B96ED083DE17F3004002D6F7A2B602CEAD SWAP1 PUSH1 0x60 ADD PUSH1 0x40 MLOAD DUP1 SWAP2 SUB SWAP1 LOG1 PUSH2 0x359 PUSH2 0x185 JUMP JUMPDEST PUSH1 0x40 MLOAD DUP1 PUSH1 0x60 ADD PUSH1 0x40 MSTORE DUP1 PUSH1 0x30 DUP2 MSTORE PUSH1 0x20 ADD PUSH2 0x4A6 PUSH1 0x30 SWAP2 CODECOPY SWAP3 SWAP2 POP POP JUMP JUMPDEST PUSH1 0x1 SLOAD PUSH1 0x40 DUP1 MLOAD PUSH1 0x0 DUP2 MSTORE PUSH1 0x20 DUP2 ADD DUP6 SWAP1 MSTORE DUP1 DUP3 ADD SWAP3 SWAP1 SWAP3 MSTORE MLOAD PUSH32 0xE8AB5C1AA78CA04C4F8F88E69FC783B96ED083DE17F3004002D6F7A2B602CEAD SWAP2 DUP2 SWAP1 SUB PUSH1 0x60 ADD SWAP1 LOG1 POP POP PUSH1 0x40 DUP1 MLOAD DUP1 DUP3 ADD SWAP1 SWAP2 MSTORE PUSH1 0x1E DUP2 MSTORE PUSH32 0x536F7272792C2077726F6E672067756573732E2054727920616761696E210000 PUSH1 0x20 DUP3 ADD MSTORE SWAP1 JUMP JUMPDEST PUSH1 0x0 PUSH1 0x20 DUP3 DUP5 SUB SLT ISZERO PUSH2 0x407 JUMPI PUSH1 0x0 DUP1 REVERT JUMPDEST POP CALLDATALOAD SWAP2 SWAP1 POP JUMP JUMPDEST PUSH1 0x0 PUSH1 0x20 DUP1 DUP4 MSTORE DUP4 MLOAD DUP1 DUP3 DUP6 ADD MSTORE PUSH1 0x0 JUMPDEST DUP2 DUP2 LT ISZERO PUSH2 0x43B JUMPI DUP6 DUP2 ADD DUP4 ADD MLOAD DUP6 DUP3 ADD PUSH1 0x40 ADD MSTORE DUP3 ADD PUSH2 0x41F JUMP JUMPDEST POP PUSH1 0x0 PUSH1 0x40 DUP3 DUP7 ADD ADD MSTORE PUSH1 0x40 PUSH1 0x1F NOT PUSH1 0x1F DUP4 ADD AND DUP6 ADD ADD SWAP3 POP POP POP SWAP3 SWAP2 POP POP JUMP JUMPDEST PUSH1 0x0 DUP3 PUSH2 0x479 JUMPI PUSH4 0x4E487B71 PUSH1 0xE0 SHL PUSH1 0x0 MSTORE PUSH1 0x12 PUSH1 0x4 MSTORE PUSH1 0x24 PUSH1 0x0 REVERT JUMPDEST POP MOD SWAP1 JUMP JUMPDEST DUP1 DUP3 ADD DUP1 DUP3 GT ISZERO PUSH2 0x49F JUMPI PUSH4 0x4E487B71 PUSH1 0xE0 SHL PUSH1 0x0 MSTORE PUSH1 0x11 PUSH1 0x4 MSTORE PUSH1 0x24 PUSH1 0x0 REVERT JUMPDEST SWAP3 SWAP2 POP POP JUMP INVALID NUMBER PUSH16 0x6E67726174756C6174696F6E732C2079 PUSH16 0x7520677565737365642074686520636F PUSH19 0x72656374206E756D62657221A2646970667358 0x22 SLT KECCAK256 PUSH19 0xC2B3F46B631033BB07CA957350CA2611261ADE 0x4C SWAP16 DUP16 PUSH14 0xA60537E9F6FA2A0864736F6C6343 STOP ADDMOD SGT STOP CALLER "
        },
        "methodIdentifiers": {
          "endGame()": "6cbc2ded",
          "generateRandomNumber()": "773a1154",
          "getRandomNumber()": "dbdff2c1",
          "guess(uint256)": "9189fec1",
          "isGameActive()": "0c0ef2b0",
          "owner()": "8da5cb5b",
          "restartGame()": "8d25af04"
        }
      }
    }
  }
}