{"abi":[{"type":"constructor","inputs":[{"name":"_title","type":"string","internalType":"string"},{"name":"_description","type":"string","internalType":"string"},{"name":"_owner","type":"address","internalType":"address"}],"stateMutability":"nonpayable"},{"type":"function","name":"contribute","inputs":[],"outputs":[],"stateMutability":"payable"},{"type":"function","name":"description","inputs":[],"outputs":[{"name":"","type":"string","internalType":"string"}],"stateMutability":"view"},{"type":"function","name":"owner","inputs":[],"outputs":[{"name":"","type":"address","internalType":"address"}],"stateMutability":"view"},{"type":"function","name":"title","inputs":[],"outputs":[{"name":"","type":"string","internalType":"string"}],"stateMutability":"view"},{"type":"function","name":"withdraw","inputs":[],"outputs":[],"stateMutability":"payable"}],"bytecode":{"object":"0x608060405234801561001057600080fd5b506040516106b13803806106b183398101604081905261002f91610125565b600080546001600160a01b0319166001600160a01b03831617905560016100568482610239565b5060026100638382610239565b505050506102f7565b634e487b7160e01b600052604160045260246000fd5b600082601f83011261009357600080fd5b81516001600160401b038111156100ac576100ac61006c565b604051601f8201601f19908116603f011681016001600160401b03811182821017156100da576100da61006c565b6040528181528382016020018510156100f257600080fd5b60005b82811015610111576020818601810151838301820152016100f5565b506000918101602001919091529392505050565b60008060006060848603121561013a57600080fd5b83516001600160401b0381111561015057600080fd5b61015c86828701610082565b602086015190945090506001600160401b0381111561017a57600080fd5b61018686828701610082565b604086015190935090506001600160a01b03811681146101a557600080fd5b809150509250925092565b600181811c908216806101c457607f821691505b6020821081036101e457634e487b7160e01b600052602260045260246000fd5b50919050565b601f82111561023457806000526020600020601f840160051c810160208510156102115750805b601f840160051c820191505b81811015610231576000815560010161021d565b50505b505050565b81516001600160401b038111156102525761025261006c565b6102668161026084546101b0565b846101ea565b6020601f82116001811461029a57600083156102825750848201515b600019600385901b1c1916600184901b178455610231565b600084815260208120601f198516915b828110156102ca57878501518255602094850194600190920191016102aa565b50848210156102e85786840151600019600387901b60f8161c191681555b50505050600190811b01905550565b6103ab806103066000396000f3fe60806040526004361061004a5760003560e01c80633ccfd60b1461004f5780634a79d50c146100595780637284e416146100845780638da5cb5b14610099578063d7bb99ba146100d1575b600080fd5b6100576100d9565b005b34801561006557600080fd5b5061006e610167565b60405161007b91906102ed565b60405180910390f35b34801561009057600080fd5b5061006e6101f5565b3480156100a557600080fd5b506000546100b9906001600160a01b031681565b6040516001600160a01b03909116815260200161007b565b610057610202565b6000546001600160a01b031633146101385760405162461bcd60e51b815260206004820152601d60248201527f4f6e6c79206f776e65722063616e2077697468647261772066756e647300000060448201526064015b60405180910390fd5b60405133904780156108fc02916000818181858888f19350505050158015610164573d6000803e3d6000fd5b50565b600180546101749061033b565b80601f01602080910402602001604051908101604052809291908181526020018280546101a09061033b565b80156101ed5780601f106101c2576101008083540402835291602001916101ed565b820191906000526020600020905b8154815290600101906020018083116101d057829003601f168201915b505050505081565b600280546101749061033b565b6000341161025e5760405162461bcd60e51b815260206004820152602360248201527f436f6e747269627574696f6e206d75737420626520677265617465722074686160448201526206e20360ec1b606482015260840161012f565b604051600090309034908381818185875af1925050503d80600081146102a0576040519150601f19603f3d011682016040523d82523d6000602084013e6102a5565b606091505b50509050806101645760405162461bcd60e51b81526020600482015260146024820152734661696c656420746f2073656e642066756e647360601b604482015260640161012f565b602081526000825180602084015260005b8181101561031b57602081860181015160408684010152016102fe565b506000604082850101526040601f19601f83011684010191505092915050565b600181811c9082168061034f57607f821691505b60208210810361036f57634e487b7160e01b600052602260045260246000fd5b5091905056fea2646970667358221220a0e30cf54005bdfefebd38ebf50097a4f685d7c5233cfbf61f49bef10dcfb1a264736f6c634300081a0033","linkReferences":{}},"methodIdentifiers":{"contribute()":"d7bb99ba","description()":"7284e416","owner()":"8da5cb5b","title()":"4a79d50c","withdraw()":"3ccfd60b"},"id":23}